:020000040800F2
:1000000000000220298600081D7C00081F7C0008D3
:10001000217C0008237C0008257C000800000000EB
:10002000000000000000000000000000F147000890
:10003000277C00080000000081480008297C000897
:100040007986000879860008798600087986000894
:100050007986000879860008798600087986000884
:100060007986000879860008798600087986000874
:10007000397C0008457C000879860008517C00081E
:100080007986000879860008798600087986000854
:100090007986000879860008798600087986000844
:1000A0007986000879860008798600087986000834
:1000B0007986000879860008798600087986000824
:1000C0007986000879860008798600087986000814
:1000D0007986000879860008798600087986000804
:1000E00079860008798600087986000879860008F4
:1000F00079860008798600087986000879860008E4
:10010000798600085D7C00087986000879860008F9
:1001100079860008798600087986000879860008C3
:10012000798600087986000879860008697C0008CD
:1001300079860008000000000000000079860008B1
:100140007986000879860008798600087986000893
:1001500079860008757C0008798600087986000891
:100160007986000879860008798600087986000873
:10017000798600087986000879860008000000006A
:100180000000000079860008000000000000000068
:100190007986000800000000000000007986000851
:1001A0000000000000000000000000007986000848
:1001B0007986000879860008798600087986000823
:0401C0007986000834
:1001D00010B5054C237833B9044B13B10448AFF381
:1001E00000800123237010BD1C02002000000000CD
:1001F0002C9A000808B5034B1BB103490348AFF321
:10020000008008BD00000000200200202C9A000899
:1002100081F0004102E000BF83F0004330B54FEAB7
:1002200041044FEA430594EA050F08BF90EA020F24
:100230001FBF54EA000C55EA020C7FEA645C7FEAB7
:10024000655C00F0E2804FEA5454D4EB5555B8BFDA
:100250006D420CDD2C4480EA020281EA030382EA4B
:10026000000083EA010180EA020281EA0303362DDD
:1002700088BF30BD11F0004F4FEA01314FF4801CB0
:100280004CEA113102D0404261EB410113F0004FC2
:100290004FEA03334CEA133302D0524263EB430379
:1002A00094EA050F00F0A780A4F10104D5F1200E17
:1002B0000DDB02FA0EFC22FA05F2801841F1000172
:1002C00003FA0EF2801843FA05F359410EE0A5F146
:1002D00020050EF1200E012A03FA0EFC28BF4CF077
:1002E000020C43FA05F3C01851EBE37101F000452D
:1002F00007D54FF0000EDCF1000C7EEB00006EEB3A
:100300000101B1F5801F1BD3B1F5001F0CD34908C3
:100310005FEA30004FEA3C0C04F101044FEA44521A
:1003200012F5800F80F09A80BCF1004F08BF5FEAA1
:10033000500C50F1000041EB045141EA050130BD81
:100340005FEA4C0C404141EB010111F4801FA4F124
:100350000104E9D191F0000F04BF01460020B1FA79
:1003600081F308BF2033A3F10B03B3F120020CDAB1
:100370000C3208DD02F1140CC2F10C0201FA0CF08F
:1003800021FA02F10CE002F11402D8BFC2F1200CF4
:1003900001FA02F120FA0CFCDCBF41EA0C019040AA
:1003A000E41AA2BF01EB0451294330BD6FEA0404F3
:1003B0001F3C1CDA0C340EDC04F11404C4F12002DE
:1003C00020FA04F001FA02F340EA030021FA04F3F0
:1003D00045EA030130BDC4F10C04C4F1200220FA47
:1003E00002F001FA04F340EA0300294630BD21FA85
:1003F00004F0294630BD94F0000F83F4801306BF4B
:1004000081F480110134013D4EE77FEA645C18BF3E
:100410007FEA655C29D094EA050F08BF90EA020FD5
:1004200005D054EA000C04BF1946104630BD91EACD
:10043000030F1EBF0021002030BD5FEA545C05D1D0
:100440004000494128BF41F0004130BD14F580040F
:100450003CBF01F5801130BD01F0004545F0FE4183
:1004600041F470014FF0000030BD7FEA645C1ABFB8
:10047000194610467FEA655C1CBF0B46024650EAEF
:10048000013406BF52EA033591EA030F41F400211B
:1004900030BD00BF90F0000F04BF0021704730B5A1
:1004A0004FF4806404F132044FF000054FF0000176
:1004B00050E700BF90F0000F04BF0021704730B537
:1004C0004FF4806404F1320410F0004548BF40420C
:1004D0004FF000013EE700BF42004FEAE2014FEA61
:1004E00031014FEA02701FBF12F07F4393F07F4F3C
:1004F00081F06051704792F0000F14BF93F07F4F6E
:10050000704730B54FF4607401F0004521F00041B0
:1005100020E700BF50EA010208BF704730B54FF036
:1005200000050AE050EA010208BF704730B511F03B
:10053000004502D5404261EB41014FF4806404F173
:1005400032045FEA915C3FF4DCAE4FF003025FEAF5
:10055000DC0C18BF03325FEADC0C18BF033202EB7D
:10056000DC02C2F1200300FA03FC20FA02F001FAD7
:1005700003FE40EA0E0021FA02F11444C1E600BF76
:1005800070B54FF0FF0C4CF4E06C1CEA11541DBF29
:100590001CEA135594EA0C0F95EA0C0F00F0DEF8F4
:1005A0002C4481EA030621EA4C5123EA4C5350EAD9
:1005B000013518BF52EA033541F4801143F480132A
:1005C00038D0A0FB02CE4FF00005E1FB02E506F0BB
:1005D0000042E0FB03E54FF00006E1FB03569CF010
:1005E000000F18BF4EF0010EA4F1FF04B6F5007F16
:1005F00064F5407404D25FEA4E0E6D4146EB060688
:1006000042EAC62141EA55514FEAC52040EA5E5010
:100610004FEACE2EB4F1FD0C88BFBCF5E06F1ED8BA
:10062000BEF1004F08BF5FEA500E50F1000041EBF1
:10063000045170BD06F0004646EA010140EA02009E
:1006400081EA0301B4EB5C04C2BFD4EB0C0541EAC0
:10065000045170BD41F480114FF0000E013C00F3D5
:10066000AB8014F1360FDEBF002001F0004170BDF9
:10067000C4F10004203C35DA0C341BDC04F1140412
:10068000C4F1200500FA05F320FA04F001FA05F29E
:1006900040EA020001F0004221F0004110EBD3706B
:1006A00021FA04F642EB06015EEA430E08BF20EA97
:1006B000D37070BDC4F10C04C4F1200500FA04F33A
:1006C00020FA05F001FA04F240EA020001F00041CC
:1006D00010EBD37041F100015EEA430E08BF20EA3F
:1006E000D37070BDC4F1200500FA05F24EEA020E87
:1006F00020FA04F301FA05F243EA020321FA04F0B6
:1007000001F0004121FA04F220EA020000EBD3706C
:100710005EEA430E08BF20EAD37070BD94F0000F6C
:100720000FD101F00046400041EB010111F4801FA0
:1007300008BF013CF7D041EA060195F0000F18BF51
:10074000704703F00046520043EB030313F4801F8D
:1007500008BF013DF7D043EA0603704794EA0C0F47
:100760000CEA135518BF95EA0C0F0CD050EA41065D
:1007700018BF52EA4306D1D181EA030101F00041DA
:100780004FF0000070BD50EA410606BF1046194602
:1007900052EA430619D094EA0C0F02D150EA01360E
:1007A00013D195EA0C0F05D152EA03361CBF10464F
:1007B00019460AD181EA030101F0004141F0FE41EE
:1007C00041F470014FF0000070BD41F0FE4141F472
:1007D000780170BD70B54FF0FF0C4CF4E06C1CEA72
:1007E00011541DBF1CEA135594EA0C0F95EA0C0F27
:1007F00000F0A7F8A4EB050481EA030E52EA0335E2
:100800004FEA013100F088804FEA03334FF0805502
:1008100045EA131343EA12634FEA022245EA11152F
:1008200045EA10654FEA00260EF000419D4208BFE0
:10083000964244F1FD0404F5407402D25B084FEA8D
:100840003202B61A65EB03055B084FEA32024FF439
:1008500080104FF4002CB6EB020E75EB030E22BF96
:10086000B61A754640EA0C005B084FEA3202B6EB56
:10087000020E75EB030E22BFB61A754640EA5C0005
:100880005B084FEA3202B6EB020E75EB030E22BF95
:10089000B61A754640EA9C005B084FEA3202B6EB96
:1008A000020E75EB030E22BFB61A754640EADC0055
:1008B00055EA060E18D04FEA051545EA16754FEAB7
:1008C00006164FEAC30343EA52734FEAC2025FEAD5
:1008D0001C1CC0D111F4801F0BD141EA00014FF064
:1008E00000004FF0004CB6E711F4801F04BF014335
:1008F0000020B4F1FD0C88BFBCF5E06F3FF6AFAE51
:10090000B5EB030C04BFB6EB020C5FEA500C50F1E0
:10091000000041EB045170BD0EF0004E4EEA113163
:1009200014EB5C04C2BFD4EB0C0541EA045170BD6A
:1009300041F480114FF0000E013C90E645EA060EAE
:100940008DE60CEA135594EA0C0F08BF95EA0C0FDC
:100950003FF43BAF94EA0C0F0AD150EA01347FF424
:1009600034AF95EA0C0F7FF425AF104619462CE7FB
:1009700095EA0C0F06D152EA03353FF4FDAE10465E
:10098000194622E750EA410618BF52EA43067FF4AF
:10099000C5AE50EA41047FF40DAF52EA43057FF43F
:1009A000EBAE12E74FF0FF3C06E000BF4FF0010C4A
:1009B00002E000BF4FF0010C4DF804CD4FEA410CAE
:1009C0007FEA6C5C4FEA430C18BF7FEA6C5C1BD07B
:1009D00001B050EA410C0CBF52EA430C91EA030FFC
:1009E00002BF90EA020F0020704710F1000F91EA59
:1009F000030F58BF994208BF90422CBFD8176FEA27
:100A0000E37040F0010070474FEA410C7FEA6C5CF4
:100A100002D150EA013C07D14FEA430C7FEA6C5CFB
:100A2000D6D152EA033CD3D05DF8040B704700BF27
:100A30008446104662468C461946634600E000BF75
:100A400001B5FFF7B7FF002848BF10F1000F01BD47
:100A50004DF808EDFFF7F4FF0CBF012000205DF812
:100A600008FB00BF4DF808EDFFF7EAFF34BF012097
:100A700000205DF808FB00BF4DF808EDFFF7E0FF30
:100A800094BF012000205DF808FB00BF4DF808ED81
:100A9000FFF7CEFF94BF012000205DF808FB00BFE8
:100AA0004DF808EDFFF7C4FF34BF012000205DF8CA
:100AB00008FB00BF4FEA410C7FEA6C5C02D150EAB0
:100AC000013C0AD14FEA430C7FEA6C5C02D152EA46
:100AD000033C02D14FF0000070474FF00100704717
:100AE0004FEA410212F5001215D211D56FF4787356
:100AF000B3EB625212D94FEAC12343F0004343EAF9
:100B0000505311F0004F23FA02F018BF40427047D3
:100B10004FF00000704750EA013005D111F000405D
:100B200008BF6FF0004070474FF00000704700BFF3
:100B30004FEA4102B2F1E04324BFB3F5001CDCF1FF
:100B4000FE5C0DD901F0004C4FEAC0024CEA507037
:100B5000B2F1004F40EB830008BF20F00100704766
:100B600011F0804F21D113F13872BCBF01F0004069
:100B7000704741F480114FEA5252C2F11802C2F19B
:100B8000200C10FA0CF320FA02F018BF40F001001C
:100B90004FEAC1234FEAD32303FA0CFC40EA0C00CE
:100BA00023FA02F34FEA4303CCE77FEA625307D10B
:100BB00050EA01331EBF4FF0FE4040F44000704742
:100BC00001F0004040F0FE4040F40000704700BFDC
:100BD00053B94AB9002908BF00281CBF4FF0FF31A4
:100BE0004FF0FF3000F07AB9ADF1080C6DE904CE9A
:100BF00000F006F8DDF804E0DDE9022304B07047F8
:100C00002DE9F0478C460D460446089E002B51D135
:100C10008A4217466DD9B2FA82FEBEF1000F0BD0A0
:100C2000CEF1200C01FA0EF520FA0CFC02FA0EF7B8
:100C30004CEA050C00FA0EF44FEA174A250CBCFBEF
:100C4000FAF81FFA87F90AFB18CC45EA0C4508FBAD
:100C500009F3AB420AD9ED1908F1FF3280F0238184
:100C6000AB4240F22081A8F102083D44ED1AA4B243
:100C7000B5FBFAF00AFB105544EA054400FB09F9FC
:100C8000A14509D9E41900F1FF3380F00A81A1459B
:100C900040F2078102383C44A4EB090440EA0840D2
:100CA0000021002E61D024FA0EF40023346073601A
:100CB000BDE8F0878B4207D9002E54D0002186E88A
:100CC00021000846BDE8F087B3FA83F1002940F01F
:100CD0008E80AB4202D3824200F2FA80841A65EB26
:100CE00003050120AC46002E3FD086E81010BDE879
:100CF000F08712B90127B7FBF2F7B7FA87FEBEF10A
:100D0000000F34D1EB1B3A0C1FFA87FC0121B3FB17
:100D1000F2F8250C02FB183345EA03450CFB08F3F7
:100D2000AB4207D9ED1908F1FF3002D2AB4200F215
:100D3000D1808046ED1AA3B2B5FBF2F002FB10554C
:100D400043EA05440CFB00FCA44507D9E41900F173
:100D5000FF3302D2A44500F2B8801846A4EB0C047D
:100D600040EA08409DE731463046BDE8F087CEF1C5
:100D7000200405FA0EF307FA0EF720FA04F83A0CED
:100D800025FA04F448EA0308B4FBF2F14FEA1845E7
:100D900002FB11441FFA87FC45EA044501FB0CF3F2
:100DA000AB4200FA0EF409D9ED1901F1FF3080F0E1
:100DB0008A80AB4240F2878002393D44EB1A1FFA29
:100DC00088F5B3FBF2F002FB103345EA034500FB64
:100DD0000CF3AB4207D9ED1900F1FF386FD2AB42EB
:100DE0006DD902383D44EB1A40EA01418FE7C1F169
:100DF000200722FA07F88B4005FA01F448EA0303BA
:100E000020FA07FE4FEA134CFD404EEA040EB5FBF4
:100E1000FCF94FEA1E440CFB19551FFA83F844EA0B
:100E2000054509FB08F4AC4202FA01F200FA01FAA6
:100E300008D9ED1809F1FF3043D2AC4241D9A9F1EC
:100E400002091D442D1B1FFA8EFEB5FBFCF00CFBA6
:100E500010554EEA054400FB08F8A04507D9E418F0
:100E600000F1FF3529D2A04527D902381C4440EAB9
:100E70000940A4EB0804A0FB02894C45C6464D4638
:100E800015D312D056B1BAEB0E0364EB050404FA85
:100E900007F7CB401F43CC40376074600021BDE8AA
:100EA000F0871846F8E69046E0E6C245EAD2B8EB8D
:100EB000020E69EB03050138E4E72846D7E7404610
:100EC00091E78146BEE7014678E702383C4445E7B2
:100ED000084608E7A8F102083D442BE7704700BF29
:100EE00038B50E4A0E4B054618784FF47A73B3FBAB
:100EF000F0F31068B0FBF3F000F0B8FA044658B90C
:100F00000F2D09D8024629464FF0FF3000F06EFA47
:100F1000044B20461D6038BD012038BD1000002064
:100F2000000000200400002008B50B4B1A6842F4B2
:100F300000721A601A6842F480621A601A6842F4F9
:100F400080721A60032000F03FFA0F20FFF7C8FFFD
:100F500006F042FE002008BD003C0240034A044B5C
:100F600011681B780B441360704700BFA03F00203E
:100F700000000020014B1868704700BFA03F002010
:100F800038B50446FFF7F6FF631C1CBF054B1B7802
:100F9000054618BFE418FFF7EDFF401B8442FAD85E
:100FA00038BD00BF0000002038B5044600286ED0D0
:100FB00090F820300BB905F06FF92268136823F020
:100FC00002031360FFF7D6FF054623685A689107AE
:100FD00051D41A6842F001021A60FFF7CBFF0546B0
:100FE00023685A68D20754D5227E012A1A680CBF9A
:100FF00042F0800222F080021A60627E012A1A68A2
:101000000CBF42F0400222F040021A60A27E012A88
:101010001A680CBF42F0200222F020021A60E27E21
:10102000012A1A680CBF22F0100242F010021A6066
:10103000227F012A1A680CBF42F0080222F008023F
:101040001A60627F012A1A680CBF42F0040222F083
:1010500004021A60E168A2680A4321690A436169CF
:101060000A43616801390A43DA61002001236062A2
:1010700084F8203038BDFFF77DFF401B0A28A4D933
:10108000636A43F400336362052384F8203001204F
:1010900038BDFFF76FFF401B0A28A1D9F0E7000019
:1010A00090F82030012B30B503D090F82030022B7F
:1010B00077D13F4BD3F8002242F00102C3F800225F
:1010C000D3F8002222F47C52C3F80022D3F8002285
:1010D000486A42EA0022C3F800224869D3F81C5249
:1010E00001248440E2431540C3F81C52CD69002D11
:1010F00036D1D3F80C521540C3F80C52C000CD685D
:101100008B8800F1804000F5C84043EA0543C0F8F1
:1011100040328D680B8843EA0543C0F84432886941
:10112000234B002835D1D3F804021040C3F8040241
:10113000086990BBD3F814020240C3F814220B6A6A
:101140001B4A012B02BFD2F81C322343C2F81C32C7
:10115000D2F8003223F00103C2F80032002030BD83
:10116000012DDCD1D3F80C522543C3F80C520B6887
:101170008D8845EA0345C30003F1804303F5C84366
:101180008889C3F840528D6840EA0540C3F844029C
:10119000C5E7D3F804022043C8E7D3F8142222435A
:1011A000CBE7436A43F480234362012030BD00BF94
:1011B0000064004038B590F82030012B04461FD160
:1011C0000268022380F82030136823F001031360C3
:1011D000FFF7D0FE05462368586810F0010001D1E2
:1011E000606238BDFFF7C6FE401B0A28F3D9636A68
:1011F00043F400336362052384F82030012038BDB6
:10120000436A43F400234362F8E7F0B590F82040C6
:10121000012C03D090F82040022C41D10468A5682D
:101220006F0105D4A5682E0102D4A568ED0031D563
:10123000A0680125C0F3016085401D608D68CF68FE
:1012400000F118030DBB0D6847EA45551B0100016D
:10125000E55023180D69097DC3F88451012902BFA7
:10126000D3F8841141F48071C3F8841104445168A7
:10127000C4F88C111268C4F88821D3F8802142F098
:101280000102C3F880210020F0BD4E683D4345EACD
:10129000C605DBE7436A43F4001343620120F0BD57
:1012A000436A43F48023F8E7F0B590F82040012C1E
:1012B00003D090F82040022C70D1066841B9F46840
:1012C000A40709D1436A43F4001343620120F0BD2F
:1012D000012901D13469F3E70C013519D5F8B07152
:1012E00007F004079760002F4BD1D5F8B0717F0D40
:1012F0001760D5F8B071C7F34007D760D5F8B4715F
:1013000007F00F071761D5F8B471D5F8B45126442A
:10131000C7F307272D0C97615561D6F8B8211A70CD
:1013200002682244D2F8B821120A5A700268224494
:10133000D2F8B821120C9A7002682244D2F8B8216F
:10134000120EDA7002682244D2F8BC211A710268C7
:101350002244D2F8BC21120A5A7102682244D2F8FF
:10136000BC21120C9A7102681444D4F8BC21120EEC
:10137000DA7159B90268D36843F02003D3600020C2
:10138000F0BDD5F8B071FF085760B2E70129F6D17A
:101390000268136943F020031361F0E7436A43F4E2
:1013A000802392E790F82030012B03D090F8203072
:1013B000022B07D1036819B9D86800F00300704701
:1013C0001869FAE700207047074AD36823F4E063FE
:1013D0001B041B0C43F0BF63000243F4003300F412
:1013E000E0600343D360704700ED00E0174B30B579
:1013F000DC68C4F30224C4F10703251D042B28BFB5
:101400000423062D4FF0010505FA03F303F1FF3322
:101410008CBF033C00241940A14005FA04F4013CB0
:101420002240002842EA01024FEA0212AFBF00F157
:10143000604000F00F00064BD2B2A5BF00F561403E
:10144000D2B21A5480F8002330BD00BF00ED00E096
:1014500014ED00E04209012300F01F0003FA00F040
:10146000014B43F82200704700E100E00138B0F181
:10147000807F0AD2064B074A5860F02182F8231079
:101480000020072298601A6070470120704700BF53
:1014900010E000E000ED00E00368DAB223F47F73AF
:1014A00023F003031821103AB2FBF1F20449032A96
:1014B00088BF0433895C8365C165806D704700BF58
:1014C000189C000870B50446FFF754FD0546002C33
:1014D00071D0002384F834302268022384F8353038
:1014E000136823F00103136021680B68D8073CD40C
:1014F0000B68324D6268A0691D40A3681343E2681F
:1015000013432269134362691343E269034313439C
:10151000226A1343626A042A43EA050301BF266B69
:10152000E56A35432B430B604B69042A23F007031C
:1015300043EA02030BD1A26AE56A13433DB1F8B94D
:10154000012A2DD001D3022A01D1EA012BD44B610B
:101550002046FFF7A1FFE26D3F2393408360002008
:101560000123606584F8353070BDFFF703FD401B33
:101570000528B9D920236365032084F8350070BDA0
:10158000B0F5005F13D1032AE1D801A050F822F092
:10159000A71500084B150008A7150008A11500089D
:1015A000B5F1C07FD3D1402363650120E5E7022A6E
:1015B000F9D9032AC8E7012070BD00BF3F8010F0B1
:1015C00070B590F83440012C36D0012480F83440B6
:1015D00090F83540866D012C4FF000054FF0020465
:1015E00028D180F8354004684565256825F48025B4
:1015F000256063608368402B0EBFA260A160E2603B
:10160000C26D08BFE1603F239340B360236843F09D
:1016100016032360636943F080036361036C1BB1AD
:10162000236843F008032360236843F00103236029
:10163000002070BD80F83450022070BD90F8353025
:10164000022B03D0802343650120704702680523E5
:1016500080F83530136823F00103136000207047D1
:10166000F7B5002301935A4B856D1F68C36D2E6833
:1016700008229A40164204460CD0016808684007C8
:1016800008D5086820F004000860AA60626D42F086
:101690000102626501229A40164208D02168496918
:1016A000090641BFAA60626D42F00202626504222F
:1016B0009A40164208D021680968880741BFAA608D
:1016C000626D42F00402626510229A40164210D008
:1016D0002368196809070CD5AA601A68500335D524
:1016E0001B68190301D4236C00E0A36C0BB12046E6
:1016F0009847E16D20228A40164238D02368186846
:10170000C60634D5AA6094F83520052A1A6825D172
:1017100022F016021A605A6922F080025A61226C85
:101720000AB9A26C1AB11A6822F008021A603F23A3
:101730008B40AB60002384F83430012384F83530CB
:10174000236D0BB12046984703B0F0BD1A68D2054F
:101750005EBF1A6822F008021A60C4E7500328D559
:101760001B68190332D4636C0BB120469847636D34
:10177000002BE9D0636DDA0719D50523226884F8B8
:101780003530136823F0010313604FF41653B7FB91
:10179000F3F7019B01339F42019302D31368DB07E8
:1017A000F7D4002384F83430012384F83530E36C17
:1017B000C7E71A6812F4807208D1196821F0100185
:1017C0001960012384F8342084F83530E36BCBE7CB
:1017D000100000202DE9F04F85B00B68DFF8A081E4
:1017E000654ADFF8A091019300234FF0010E019CA0
:1017F0000EFA03FE0EEA0406B64540F0AA804C68D5
:1018000024F01007022F16D14FEAD30A00EB8A0A00
:1018100003F0070BDAF820504FEA8B0B4FF00F0C58
:101820000CFA0BFC25EA0C0C0D6905FA0BF545EAE0
:101830000C05CAF820504FEA430A0325D0F800B03F
:1018400005FA0AF5ED4304F0030C0BEA050B0CFA5C
:101850000AFC013F4CEA0B0C012FC0F800C011D864
:10186000876807EA050BCF6807FA0AFC4CEA0B0702
:101870008760476827EA0E0EC4F300179F4047EAC7
:101880000E074760C7683D408F6807FA0AF73D4377
:10189000C560E5005DD54FF0000BCDF80CB0D8F871
:1018A0004470364D47F48047C8F84470D8F8447007
:1018B00007F480470397039F23F0030707F180474E
:1018C00007F59C3703F0030CD7F808A04FEA8C0CFF
:1018D0004FF00F0E0EFA0CFEA8422AEA0E0E3FD071
:1018E00005F58065A8423DD005F58065A8423BD04E
:1018F00005F58065A84239D005F58065A84237D046
:10190000484537D005F50065A84214BF07250625D0
:1019100005FA0CF545EA0E05BD601568F74314F4A9
:10192000803F0CBF3D4035431560556814F4003FBF
:101930000CBF3D4035435560956814F4801F0CBFC3
:101940003D4035439560D568A40254BF3D403543C2
:10195000D5600133102B7FF448AF05B0BDE8F08FA0
:101960005D46D5E70125D3E70225D1E70325CFE77B
:101970000425CDE70525CBE7003C014000000240EF
:10198000003802400014024070B50446002862D0BE
:1019900090F83D3003F0FF021BB980F83C2005F0C1
:1019A000A5F922682D4E2E4D242384F83D3013686E
:1019B00023F00103136000F071F963682268B0FB43
:1019C000F5F5B34284BF4FF496716943556091BFFA
:1019D000691C4FF47A75B1FBF5F10131B342116224
:1019E00021D85B00B0FBF3F0C0F30B03032B98BFCF
:1019F0000420216AE369D0610B431360E168236925
:101A00000B439360A16963690B43D360136843F090
:101A10000103136000202023206484F83D302063FC
:101A200084F83E0070BDA16849B903EB4303B0FBE5
:101A3000F3F0C0F30B0363B140F40040D9E7192180
:101A40004B43B0FBF3F0C0F30B0313B140F4404041
:101A5000CFE70120CDE7012070BD00BFA0860100C7
:101A600040420F002DE9F041069D04460F46164600
:101A7000984621688A683A4214BF01220022B24285
:101A800002D10020BDE8F0816B1CF3D04DB90423D6
:101A900084F84130636C43F0010363640120BDE8C6
:101AA000F081FFF767FAA0EB08008542E1D2EEE78C
:101AB00037B50446FFF75EFA0546002C4DD094F882
:101AC0004030012B4BD0012384F8403094F8412062
:101AD00002F0FF033AB984F84030204605F054FA8A
:101AE00041F28833A3642068A1680268A36C0139BD
:101AF00022F4F85242EA01220260202100930022DF
:101B00002B462046FFF7AEFF10BBE569E36822686D
:101B10002B43256A11682B43656821F07F4143EA16
:101B2000056321F0D0010B431360A1696369556817
:101B30000B43216943EA01430A4929400B4353609F
:101B4000136843F0010313600123606484F841309B
:101B5000002384F8403003B030BD0120FBE70220B1
:101B6000F9E700BFFEF8E0FF2DE9F0410D4604461D
:101B700010B90120BDE8F081444B1A6802F00F0251
:101B80008A4228D321688F072DD4C80740D43F4B01
:101B90001A6802F00F02954266D3226851076CD48E
:101BA000130707D53A4A2169936823F4604343EA4F
:101BB000C103936000F09AFA354B364A9B68C3F331
:101BC0000313D35CD840344B18600F20FFF788F91B
:101BD0000020BDE8F081CAB21A701B6803F00F0341
:101BE0009942C6D1CEE72A4B11F0040F1EBF9A6866
:101BF00042F4E0529A600E0742BF9A6842F4604293
:101C00009A609A68A06822F0F00202439A60BCE7EA
:101C100062681F4B012A1DD11B6813F4003FA8D036
:101C20001B4EB36823F003031343B360FFF7A2F91D
:101C300041F288380746B368626803F00C03B3EBDF
:101C4000820FA4D0FFF796F9C01B4045F3D90320BB
:101C5000BDE8F081911E01291B6802D813F0007FB6
:101C6000DDE713F0020FDAE7EAB21A701B6803F03F
:101C70000F039D427FF47DAF8FE70549E0688B68D5
:101C800023F4E05303438B608AE700BF003C02402B
:101C900000380240649C000810000020044B054AF4
:101CA0009B68C3F38223D35C034A1068D840704713
:101CB00000380240749C000810000020044B054AC4
:101CC0009B68C3F34233D35C034A1068D840704723
:101CD00000380240749C00081000002003682DE9C1
:101CE000F74313F0010604460BD0AA49866BD1F8DE
:101CF0008C2022F0C0623243B6FA86F6C1F88C20FE
:101D000076099D070BD5A348E16BD0F88C2022F013
:101D1000C0520A430029C0F88C2008BF012613F0E6
:101D2000040512D09B49256BD1F88C20B5F5801F96
:101D300022F4401242EA050218BFB5FA85F5C1F84F
:101D40008C2012BF6D090025012618070FD5914878
:101D5000616BD0F88C2022F440020A43B1F5800F69
:101D6000C0F88C2000F00981002908BF01259906E0
:101D700033D500230193874B874F1A6C42F0805272
:101D80001A641B6C03F080530193019B3B6843F47E
:101D900080733B60FFF7EEF880463B68DA0540F160
:101DA000EE807C4F3B6F13F4407340F0FB80236C5C
:101DB00003F44072B2F5407F764A40F01681916894
:101DC00023F0704021F4F81120F440700143916039
:101DD000116FC3F30B030B4313672368D90642BF8C
:101DE0006E4B94F858201A6023681A0608D5694982
:101DF000E06CD1F8942022F440020243C1F8942010
:101E00005F0608D56349A06CD1F8942022F0806267
:101E10000243C1F89420D8050CD55E48616DD0F816
:101E2000942022F000620A43B1F1006FC0F89420C0
:101E300008BF0125990508D55649606CD1F8942052
:101E400022F080520243C1F894205A0500F1D1805B
:101E5000012E40F0DC80524E4E4F00233360FFF7DE
:101E600089F880463B681B0100F125812268D00774
:101E700001D5A36B1BB1910715D5E36B9BB9454900
:101E8000D1F88430D1F8840003F4403300F070605E
:101E9000034360680343A06843EA8013606943EA30
:101EA0000073C1F88430530703D5236BB3F5801F4B
:101EB00005D0170720D5636BB3F5800F1CD13549CA
:101EC000D1F88430D1F8840003F4403300F0E040CE
:101ED000034360680343A06843EA8013206943EA30
:101EE0000063C1F88430D1F88C00A36A20F01F0091
:101EF000013B0343C1F88C3050051BD5236DB3F172
:101F0000005F17D123486768D0F88410D0F8843078
:101F100003F0E0433B43A768C1F30141013143EAC9
:101F2000871343EA4163E1684908013943EA014301
:101F3000C0F88430110511D52369A2681B0643EA55
:101F4000821362681343626943EA0273E2685208CB
:101F5000013A43EA02430F4AC2F884300123336056
:101F6000FFF708F80B4E074633681A0153D4FFF702
:101F700001F8C01B0228F7D908E00126F7E6FEF7B2
:101F8000F9FFA0EB080002287FF607AF032003B09B
:101F9000BDE8F0830038024000700040E011474285
:101FA00068004742226C02F4407293423FF4FFAE55
:101FB0003B6F4B4A0121116023F4407300211160F3
:101FC0003B673B6FDB077FF5F2AEFEF7D3FF41F2D5
:101FD000883980463B6F98073FF5E9AEFEF7CAFFA8
:101FE000A0EB08004845F5D9D0E7916821F4F81135
:101FF000EDE63C48216DD0F8942022F000520A43CF
:10200000B1F1005FC0F894207FF422AF23E7B3F56D
:10201000006F3FF420AF012D4BD1334D314E0023E3
:102020002B60FEF7A7FF074633689B004BD421685F
:102030004E0701D5236B1BB108071AD5636BC3B9D3
:10204000284AA069D2F8883003F440330343E0699A
:1020500043EA8013606A43EA0063C2F88830D2F82A
:102060008C30E06A23F4F853013843EA0023C2F8C5
:102070008C30CA0514D5636DB3F1006F10D11949C6
:10208000A269D1F8883003F070631343E26943EA30
:102090008213226A5208013A43EA0243C1F88830A7
:1020A00001232B60FEF766FF0E4C054623689B005C
:1020B0000FD500206BE7FEF75DFFA0EB08000228BC
:1020C0007FF6D0AE62E7FEF755FFC01B0228ABD902
:1020D0005CE7FEF74FFF401B0228E7D956E700BF39
:1020E000400E47420038024070004742204908B580
:1020F0008B6803F00C03082B07D00C2B20D01D4A53
:102100001D48042B18BF104608BD4A684B68496833
:1021100013F4800314BF18481648C1F3881118BF80
:10212000002302F03F02A1FB0001FEF751FD104B1E
:102130005B68C3F3014301335B00B0FBF3F008BD00
:102140004A684B68496813F4800314BF0A48094879
:10215000C1F3881118BF002302F03F02A1FB000168
:10216000FEF736FD024B5B68C3F30273E5E700BF81
:10217000003802400024F40000127A0003682DE9C0
:10218000F341DF07044610D423689E0767D4236811
:102190001A0700F1B28023685B0700F1D080A269C2
:1021A000002A40F0398100201EE0974B9A6802F027
:1021B0000C02042A10D09A6802F00C02082A02D1FC
:1021C0005B685D0208D4904B9A6802F00C020C2AFE
:1021D0000DD15A6850020AD58B4B1B689903D3D591
:1021E0006368002BD0D1012002B0BDE8F0816268A5
:1021F000B2F5803F11D11A6842F480321A60FEF7BE
:10220000B9FE814D06462B689A03BDD4FEF7B2FE97
:10221000801B6428F7D90320E6E77B4DB2F5A02F99
:102220002B6807D143F480232B602B6843F4803361
:102230002B60E4E723F480332B602B6823F48023A6
:102240002B60002ADBD1FEF795FE06462B689B0328
:102250009AD5FEF78FFE801B6428F7D9DBE76A4B1F
:102260009A6812F00C0F10D09A6802F00C02082A3B
:1022700002D15B685F0208D5634A936803F00C03E0
:102280000C2B11D153685E020ED45F4B1A68950770
:1022900002D5E268012AA6D11A68216922F0F80263
:1022A00042EAC1021A6072E7E268584BB2B10122F9
:1022B0001A60FEF75FFE544D06462B68980707D557
:1022C0002B68226923F0F80343EAC2032B605EE720
:1022D000FEF750FE801B0228EFD99CE71A60FEF73C
:1022E00049FE494D06462B6899077FF550AFFEF72A
:1022F00041FE801B0228F6D98DE76269444B7AB112
:1023000001221A60FEF736FE3F4D06466B6F9F07AF
:102310003FF541AFFEF72EFE801B0228F6D97AE783
:102320001A60FEF727FE384D06466B6F98077FF55B
:1023300032AFFEF71FFE801B0228F6D96BE7324B47
:102340001A6C12F0805228D101921A6C42F080521D
:102350001A641B6C03F080530193019B01262D4DE1
:102360002B68D9051BD5A368274D012B27D12B6FCF
:1023700043F001032B67FEF7FDFD234D074641F2B5
:1023800088382B6F9B0739D5002E3FF408AF1E4AC3
:10239000136C23F08053136401E70026DFE72B68FA
:1023A00043F480732B60FEF7E5FD07462B68DA05E2
:1023B000D9D4FEF7DFFDC01B0228F7D92BE7052B88
:1023C00004D12B6F43F004032B67D0E72A6F22F070
:1023D00001022A672A6F22F004022A67002BCAD161
:1023E000FEF7C8FD41F2883807462B6F9807CBD51A
:1023F000FEF7C0FDC01B4045F7D90CE7FEF7BAFD5C
:10240000C01B4045BDD906E70038024000004742E6
:10241000800E474200700040234DAB6803F00C0370
:10242000082B3FF4E0AE214E0023022A33602DD169
:10243000FEF7A0FD07462B68990121D4226AE369C3
:102440001343626A43EA8213E26A43EA0263226B3D
:1024500043EA0273A26A144C5208013A43EA024367
:102460006B6001233360FEF785FD054623689A0102
:102470003FF599AEFEF77EFD401B0228F6D9CAE66D
:10248000FEF778FDC01B0228D5D9C4E6FEF772FD21
:1024900004462B689B017FF586AEFEF76BFD001BA3
:1024A0000228F6D9B7E600BF003802406000474274
:1024B000836B1A68D36B43F48073D36370472DE941
:1024C000F04389B005460E46FEF754FD00238146D1
:1024D000082128680093019301F0D7FC044640BB13
:1024E000296D2868090401F0DBFD044608BB4FF0A4
:1024F000FF330293082303933023049302230593AD
:102500000690012302A92868079301F0ABFC286814
:1025100001F0F7FD044660B9074640F22A482868F2
:10252000436B13EA080F436B07D0190718D508242B
:102530008463204609B0BDE8F0839B0207D501F013
:10254000D3FB08AB03EB8703013743F8200CFEF7FE
:1025500011FDA0EB09000130E1D14FF00044E8E7A4
:10256000436B9A0701D50224E2E7436B9B0601D532
:102570002024DDE740F2FF538363009B1BBA7360A6
:10258000019B1BBA3360D4E72DE9F043164687B0B0
:10259000054698460A4639B9836B43F00063AB633E
:1025A000012007B0BDE8F08390F83400C4B2012CDC
:1025B00068D1EF6D06EB08000023B842AB6303D986
:1025C000AB6B43F00073EAE72F68032185F8341002
:1025D000FB62F86B2C4940F49570F863E86B4FEAA6
:1025E0004829C1632949C164036507F180014FEAA5
:1025F0009903FEF7E5FF264B28681C606B6C012BE6
:102600004FF0FF338DE808024FF0900302934FF034
:102610000203039369464FF000034FF0010418BF13
:1026200076020493059401F01DFC4FF400712868B4
:1026300001F02BFC48B12B6840F2FF529A63AB6B60
:102640001843A86385F83440AAE7B8F1010F12D9FE
:1026500082232B633146286801F047FC0028A0D074
:102660002B6840F2FF529A63AB6B1843A8630120BA
:1026700085F8340095E781232B633146286801F003
:102680001CFCEBE702208CE797270008F52C0008DC
:102690008C8525422DE9F041044686B015461E463C
:1026A0000F4639B9836B43F000638363012006B0A2
:1026B000BDE8F08190F83400C0B2012862D1E16D2C
:1026C000EB1800228B42A26304D9A36B43F0007382
:1026D000A363ECE720682C49032384F83430C262FA
:1026E000C36B43F01A03C363236CD9632749D964CE
:1026F0001A65636C4FF40071012B18BF6D0201F075
:10270000C4FB50B1236840F2FF529A63A36B184395
:10271000A063012084F83400C9E7012E0FD9A0235B
:1027200023632946206801F010FC0546226868B141
:1027300040F2FF539363A06B0543A563E9E7902341
:1027400023632946206801F0E8FBEEE7104B206C7C
:102750004FF001087602C3F800808032B308394692
:10276000FEF72EFF4FF0FF338DE8480069469023B7
:102770002068029303950495CDF8148001F072FB54
:10278000284694E7022092E7B1240008F52C0008BF
:102790008C852542704710B5846B236B822B09D141
:1027A000206801F0EBFB28B1A36B1843A06320461F
:1027B000FFF7F0FF2368DA6A22F00802DA6240F2DB
:1027C000FF529A63012384F83430204603F05FFD02
:1027D00010BD436E9A0F0A70C3F383624A70C3F34D
:1027E00001628A70C3F30742CA70C3F30722DBB2E7
:1027F0000A714B71836E1A0E1201CA80CA8830B5F5
:1028000092B2C3F303542243CA80C3F303420A7251
:10281000C3F30722D4094C72C2F380148C72C2F342
:102820004014CC72C2F300140C7300244C73446C3B
:10283000002C40F08380920202F440620A610A692F
:102840009B0003F47F7313430B61C26E0B6943EA71
:1028500092730B61C2F3C2630B75C2F302634B75D3
:10286000C2F342538B75C2F38243CB75D30B03F093
:1028700006030B760C7EC2F30723C2F3C032224359
:102880000A760A690C7E01320234A24042650D7A52
:102890000124AC408465640A6243C2654FF400724F
:1028A0000266C3F380125B0003F07E034A768B76E8
:1028B000C36E8A7EC3F3C014224303F07F038A767B
:1028C000CB76036FDA0F0A77C3F341724A77C3F30B
:1028D00082628A779A0D02F00C02CA77CA7FC3F32C
:1028E00081500243CA77C3F3405281F82020002070
:1028F000C3F3004281F8210081F82220C3F3C032E3
:1029000081F82320C3F3803281F82420C3F34032BE
:1029100081F82520C3F3003281F82620C3F38122F9
:1029200081F82720C3F30122C3F3460381F828204E
:1029300081F82930012381F82A3030BD012C1AD1C9
:102940001B0403F47C130B61C36E0A691C0E42EA7C
:1029500004220A610C69C3F3074222430A610A692F
:10296000920202F580624265C2654FF40072C3F3C1
:102970000723826594E7036840F2FF529A63836BF2
:1029800043F080538363012380F83430184630BD10
:10299000F0B599B0002576230C930A950B950AABF8
:1029A000044693E807008DE807006F4E07950895E9
:1029B000099507AB0ECB206801F07AF90127356045
:1029C000206801F099F937600220FEF7D9FA2068F3
:1029D000069501F005FB064668B9206801F028FB62
:1029E00080B3A6644FF6FF75069B5A1CAB42069255
:1029F00008D14FF08076012084F83400A16B0E439B
:102A0000A66381E00021206801F04AFB014610B175
:102A10004FF08056EFE7206801F05AFB014600288E
:102A2000F6D1206801F083F90028DDDA0023636421
:102A300020680123ADF8163001F062F910BB4FF0A9
:102A400080656BE0A7644FF6FF75069B5A1CAB428E
:102A50000692CED00021206801F022FB0646002815
:102A6000C9D14FF08041206801F032FB06460028B2
:102A7000C1D10146206801F05AF9C30FE5D04200E8
:102A8000D4D5D4E7636C032B1AD0206801F051FB36
:102A90000546002842D10146206801F048F904218A
:102AA0006067206801F043F90821A067206801F001
:102AB0003EF90C21E067206801F039F9C4F8800084
:102AC000636C032B22D1636C032B2ED1042120686D
:102AD00001F02DF9000DE0640DA92046FFF779FE05
:102AE000226D20681204002301F062FA0546A8B99D
:102AF00004F1100393E807008DE80700231D0ECBB7
:102B0000206801F0D5F8284619B0F0BD0DF1160186
:102B1000206801F039FB05460028D4D0012084F854
:102B20003400A36B1D43A563EEE7BDF816102165C5
:102B30002068090401F012FB05460028EED1014689
:102B4000206801F0F4F804216066206801F0EFF8D5
:102B50000821A066206801F0EAF80C21E0662068F0
:102B600001F0E5F82067B1E7A080254210B50446E2
:102B7000A0B190F8343003F0FF0213B9027704F0EB
:102B80002FFB032384F834302046FFF701FF002099
:102B90000123A063206384F8343010BD012010BDF0
:102BA000436C0B60836C4B60C36C8B60036DCB60BC
:102BB000436D0B61836D4B61C36D8B61036ECB61A4
:102BC0000020704770B5032380F83430436C032B2A
:102BD0008AB004460E4602D0B1F5805F03D1A36BE4
:102BE00043F0805356E0B1F5006F2DD1002100680D
:102BF0000491059101F09BF8800120D404A920469E
:102C0000FFF75DFC60B9059B59031AD5216D20685B
:102C1000090401F045FA18B90221206801F038FBD7
:102C2000A36B1843A063A56B002D35D0236840F239
:102C3000FF5201209A6384F834000AB070BD304618
:102C4000EEE74FF08060EBE709BB00680491059167
:102C500001F06DF8820114D404A92046FFF72FFC7F
:102C600060B9059BDB030FD5216D2068090401F0D5
:102C700017FA18B90146206801F00AFBA16B084356
:102C8000D0E74FF40060F9E74FF08060F6E7836B20
:102C900043F00063A363C6E763680493A3680593E6
:102CA000E368069363690893A369099307960AABDF
:102CB00013E907008DE8070004AB0ECB206800F095
:102CC000F7FF012384F834302846B6E7016D10B5CC
:102CD00009040446006801F0ABFA014628B92068EF
:102CE00001F025F8C0F3432010BDA36B1943A16385
:102CF0000020F7E710B5846BE36B5B6D012B03D00D
:102D0000236C5B6D012B1BD1236840F2FF529A6349
:102D1000DA6B22F49D72DA63A36B43F08043A36302
:102D20002046FFF7D3FF0538C0B2012805D8206838
:102D300001F024F9A36B1843A063012384F8343015
:102D40002046FFF727FD10BD38B5846B236C0BB10F
:102D500000232364E56BC5B92046FFF7B7FF0538AC
:102D60000123C0B29842A56384F834300DD820689E
:102D700001F004F9A36B1843A063A36B204613B1C1
:102D800003F07DFA38BDFFF705FD38BD38B5846B1B
:102D9000E36B0BB10023E363256CC5B92046FFF755
:102DA00095FF05380123C0B29842A56384F83430FA
:102DB0000DD8206801F0E2F8A36B1843A063A36B61
:102DC000204613B103F05BFA38BDFFF7E3FC38BDD2
:102DD00070B504460068436BDB054DD54FF4807336
:102DE0008363C36B23F49D73C363236B13F0080FDA
:102DF000236B1ED09E0702D4236B9D0608D501F0DD
:102E0000BDF828B1A36B1843A0632046FFF7C2FCAE
:102E1000236840F2FF529A63012384F83430236B15
:102E2000D907204602D4236B9A0722D503F02FFA44
:102E300070BD1B0640F19B80236B9E0608D501F0F8
:102E40009DF828B1A36B1843A0632046FFF7A2FCAE
:102E5000236BDD0700F18B80236B980700F18780DF
:102E60002268D36A23F00803D362012384F8343044
:102E7000204603F008FA70BD436B590410D5256A4B
:102E80004FF48043836305F120062946206804350A
:102E900000F02DFFAE42F8D1236A2033236270BDCB
:102EA000436B1A0410D5A56A4FF400432E1F8363A9
:102EB0001C35206800F018FF46F8040FAE42F8D128
:102EC000A36A2033A36270BD436B13F03A0F4ED058
:102ED000436B9B0742BFA36B43F00203A363436BA7
:102EE0001E0742BFA36B43F00803A363436B9D0619
:102EF00042BFA36B43F02003A363436BD90642BFD9
:102F0000A36B43F01003A36340F2FF538363C36BCF
:102F100023F49D73C363236B1A061FD5206C48B13D
:102F2000134B0365FEF78AFB08B3206CBDE87040C5
:102F3000FFF70ABFE06B48B10E4B0365FEF77EFB5F
:102F4000A8B1E06BBDE87040FFF720BF0123A0638C
:102F500084F83430204603F092F970BD236B1B07D0
:102F600005D5012384F834302046FFF713FC70BDEB
:102F7000492D00088D2D000810B50446002836D0D4
:102F80000023836290F8513003F0FF021BB980F8F0
:102F9000502004F00FFA2168A068A269022384F887
:102FA00051300B6823F040030B6063680343E06813
:102FB00003432069034360690343E0690343206AD4
:102FC0000343A06A034302F4007003430B60120C36
:102FD000636A02F004021A434A60CB6923F4006377
:102FE000CB6100200123606584F8513010BD0120C1
:102FF00010BD0000036A23F001030362036A426804
:1030000070B584690D6824F0730425438C6823F03F
:10301000020323430C4CA04209D004F58064A04273
:1030200005D042604A6885614263036270BDCC6826
:103030008E6923F0080323434C6922F44072344321
:1030400023F004032243ECE700000140036A23F469
:1030500080730362036A426870B5C4690D6824F026
:10306000730425438C6823F4007343EA04230E4C55
:10307000A04209D004F58064A04205D042604A68AD
:10308000C561C263036270BDCC688E6923F40063BE
:1030900043EA04234C6922F44052344323F480630E
:1030A00042EA0412EAE700BF00000140036A23F489
:1030B0008053036230B5046A4368C2690D6822F424
:1030C000E64242EA05228D6824F4005444EA0534BD
:1030D000094DA84209D005F58065A84205D0436096
:1030E0004B68C2610364046230BD4D6923F48043C0
:1030F00043EA8513F3E700BF000001400368486816
:103100009A6822F0700230B502430C6822F0070280
:10311000224350289A6021D002D8402810D030BDD8
:1031200060282DD070283DD1CA688C6898680969DC
:10313000224320F47F4042EA012202439A6030BDDC
:10314000186A1A6A096922F001021A629A6922F061
:10315000F00242EA01129A61186230BD88680D6976
:10316000196A1C6A24F001041C629A6921F00A01A0
:1031700022F0F00242EA051201439A61196230BD61
:10318000186A8C680D6920F01000186299691A6A33
:1031900021F4704122F0A00241EA053142EA041212
:1031A00099611A6230BD7047704790F83830012B32
:1031B00070B54FF002031CD080F83930036801224B
:1031C00080F838209A6822F47F4222F077029A60D1
:1031D0000A68402A79D019D8102A00F093800AD8BA
:1031E000002A00F08980012380F83930002380F81C
:1031F0003830184670BD202A00F08A80302AF2D17B
:103200009A6822F0700242F0370236E0702A36D017
:103210001BD8502A42D0602AE5D11C6A4D68CE687E
:1032200024F010041C6299691A6A21F4704122F09A
:10323000A00242EA051241EA063199611A629A68CF
:1032400022F0700242F0670217E0B2F5805F11D001
:10325000B2F5005FC7D18A684D689C68C9682A4387
:1032600024F47F4442EA012222439A609A6842F49D
:10327000804202E09A6822F007029A60B3E78A6807
:103280004D689C68C9682A4324F47F4442EA0122BD
:1032900022439A609A6842F07702EEE74C68CE6863
:1032A000196A1D6A25F001051D629A6921F00A015B
:1032B00022F0F00242EA061221439A6119629A68EA
:1032C00022F0700242F05702D7E74C68CE68196AC4
:1032D0001D6A25F001051D629A6921F00A0122F09C
:1032E000F00242EA061221439A6119629A6822F0BA
:1032F000700242F04702C0E79A6822F0700242F082
:103300000702BAE79A6822F0700242F01702B4E7A7
:103310009A6822F0700242F02702AEE738B590F8C2
:103320003830012B04464FF0020315D0012580F8F8
:10333000385080F83930FFF7E1FE2368DA6822F070
:103340004002DA60DA68002022F48042DA6084F811
:10335000395084F8380038BD184638BD2E4A036805
:10336000904212D0B0F1804F0FD0A2F57C42904233
:103370000BD002F58062904207D002F58062904245
:1033800003D002F5784290421DD14A6823F07003C1
:103390001343214A904204D1CA6823F44073134373
:1033A00028E0B0F1804FF7D01C4A9042F4D002F5EB
:1033B00080629042F0D002F580629042ECD002F53B
:1033C00078429042E8D0164A9042E5D002F58062F9
:1033D0009042E1D002F580629042DDD0A2F59832B1
:1033E0009042D9D002F580629042D5D002F5806239
:1033F0009042D1D003608B68C3620B688362064B36
:10340000984206D003F58063984202D001234361BD
:1034100070470B690363F9E70000014000040040B6
:103420000040014010B50446A0B190F8393003F0D7
:10343000FF021BB980F8382004F04CFD022384F809
:1034400039302068211DFFF789FF012384F83930C6
:10345000002010BD012010BD10B50446A0B190F8A9
:10346000393003F0FF021BB980F83820FFF79BFECC
:10347000022384F839302068211DFFF76FFF0123F4
:1034800084F83930002010BD012010BD10B504466D
:10349000A0B190F8393003F0FF021BB980F8382052
:1034A000FFF782FE022384F839302068211DFFF7E0
:1034B00055FF012384F83930002010BD012010BDD4
:1034C00070B5046A1A4E24F0010404628469056A26
:1034D000B04224F003041AD0B0F1804F17D0A6F503
:1034E0007C46B04213D006F58066B0420FD006F598
:1034F0008066B0420BD006F57846B04207D006F59C
:103500007056B04203D0A6F59436B0420DD1224396
:103510001B0122F0F002DBB225F00A0501F00A01DE
:103520001A4329438261016270BD44F00102EFE752
:1035300000000140F8B590F83830012B04460D46E4
:103540004FF0020019D0012384F8383084F8390094
:10355000A2B9CB68206806C9FFF7B2FF2368A96843
:103560009A6922F00C029A619A690A439A610123CE
:10357000002084F8393084F83800F8BD042A8E68B9
:103580002368E86882C91FD11A6A22F010021A6201
:103590009A691D6A22F4407242EA0722000380B24F
:1035A00022F470420901024301F0A00125F0A000BD
:1035B00001439A6119629A6922F440629A619A6998
:1035C00042EA06269E61D2E7082A1A6A1CD122F432
:1035D00080721A62DA691D6A22F003023A4300011E
:1035E000C0B222F0F0020902024301F4206125F486
:1035F00020600143DA611962DA6922F00C02DA61B3
:10360000DA691643DE61B2E722F480521A62DA699F
:103610001D6A22F4407242EA0722000322F470423B
:1036200080B20903104301F4204125F420421143E4
:10363000D8611962DA6922F44062DA61DA6942EA31
:103640000626DFE7036A23F010030362036A426879
:1036500070B584690D6824F4E64444EA05258C6855
:1036600023F0200343EA04130D4CA04209D004F5D3
:103670008064A04205D042604A688561826303622B
:1036800070BDCC688E6923F0800343EA04134C6953
:1036900022F44062344323F0400342EA8402EAE722
:1036A0000000014038B590F83830012B04464FF047
:1036B000020018D0012384F8383084F839001D4600
:1036C0000C2A0BD8DFE802F0070A0A0A100A0A0AD5
:1036D000140A0A0A18002068FFF78CFC002084F8FE
:1036E000395084F8380038BD2068FFF7ABFFF5E7A4
:1036F0002068FFF7ABFCF1E72068FFF7D7FCEDE7A8
:1037000090F83830012B10B54FF0020318D080F834
:10371000393003680C685A68496822F070025A60B0
:103720005A6822435A609A6822F080029A609A6826
:103730000A439A60012380F83930002380F838303A
:10374000184610BD90F83830012B1FD0CB688A681E
:1037500023F4407313434A6823F4806313430A68D5
:1037600023F4006313430A6923F4805313434A6923
:1037700023F4005313438A6923F44043134302683C
:103780005364002380F83830184670470220704791
:103790002DE9F0470668C2683369C16923F44053D4
:1037A00013433361044683680069F2680343606928
:1037B00022F41642034322F00C020B431343F3603E
:1037C0007369A26923F440731343B1F5004F736129
:1037D0007A4B7CD19E4203D003F580639E4244D154
:1037E000FEF76CFA192505FB00F360684FF06409D9
:1037F0004000B3FBF0F3B3FBF9F34FEA0318FEF715
:103800005DFA636868435B00B0FBF3F7FEF756FAB6
:10381000636868435B00B0FBF3F3B3FBF9F309FBA8
:103820001373DB003233B3FBF9F35B0003F4F87777
:10383000FEF744FA626868435200B0FBF2FAFEF702
:103840003DFA636868435B00B0FBF3F3B3FBF9F345
:1038500009FB13A3DB003233B3FBF9F303F00703D7
:1038600043443B44B360BDE8F087FEF717FA1925DF
:1038700005FB00F360684FF064094000B3FBF0F310
:10388000B3FBF9F34FEA0318FEF708FA63686843DD
:103890005B00B0FBF3F7FEF701FA636868435B0077
:1038A000B0FBF3F3B3FBF9F309FB1373DB00323323
:1038B000B3FBF9F35B0003F4F877FEF7EFF9626806
:1038C00068435200B0FBF2FAFEF7E8F9B9E79E420E
:1038D00002D03B4B9E4240D1FEF7F0F967681925B4
:1038E0004FF0640905FB00F3BF00B3FBF7F3B3FB34
:1038F000F9F31F01FEF7E2F9636868439B00B0FB30
:10390000F3F8FEF7DBF9636868439B00B0FBF3F361
:10391000B3FBF9F309FB13831B013233B3FBF9F358
:1039200003F0F008FEF7CAF9626868439200B0FB42
:10393000F2FAFEF7C3F9636868439B00B0FBF3F348
:10394000B3FBF9F309FB13A31B013233B3FBF9F308
:1039500003F00F0343EA080383E7FEF79FF9676864
:1039600019254FF0640905FB00F3BF00B3FBF7F323
:10397000B3FBF9F31F01FEF791F9636868439B00FD
:10398000B0FBF3F8FEF78AF9636868439B00B0FB6D
:10399000F3F3B3FBF9F309FB13831B013233B3FBDE
:1039A000F9F303F0F008FEF779F9626868439200D2
:1039B000B0FBF2FAFEF772F9BDE700BF001001405C
:1039C0000014014010B5044640B390F8393003F0BC
:1039D000FF021BB980F8382004F040FD2268242340
:1039E00084F83930D36823F40053D3602046FFF7BE
:1039F000CFFE23681A6922F490421A615A6922F0B4
:103A00002A025A61DA6842F40052DA600020202368
:103A1000E06384F8393084F83A3010BD012010BDDD
:103A20000E4B0F4A30B503F5807353F8F84C9B6882
:103A3000926823431343DB070ED40A4C43684D6856
:103A40000A68234025B12B4313438A681343CA688D
:103A500013434360012030BD002030BD00200140F1
:103A600000220140E010FCFF8368DB0710B511D491
:103A700042680B688C6822F04072234322F4807203
:103A80001343436083684A6823F4006313438360ED
:103A9000012010BD002010BD8368DB0710B51BD4CA
:103AA00043684A6823F4684312B18C681343234384
:103AB00043608468094B2340CC6823430C69096840
:103AC000234301F070610B438360C36A23F47003E6
:103AD0001343C362012010BD002010BDFDFCFFC0D8
:103AE0002DE9F0430A6892FAA2F44FF0010EB4FAFD
:103AF00084F403250F2732FA04F30DD14B68013B00
:103B0000012B06D84368C96823EA02034A431A43D3
:103B100042600120BDE8F0830EFA04F3134069D03F
:103B2000D1F80480D0F8009093FAA3FCBCFA8CFC86
:103B300093FAA3F6B6FA86F64FEA4C0C05FA0CFC9B
:103B4000760029EA0C0C08FA06F64CEA060606602E
:103B500008F1FF36012E16D8866893FAA3FCBCFA4A
:103B60008CFC93FAA3F94FEA4C0C05FA0CFC26EAFC
:103B70000C0CB9FA89F98E684FEA490906FA09F678
:103B80004CEA06068660C66893FAA3FCBCFA8CFC75
:103B900093FAA3F94FEA4C0C05FA0CFC26EA0C0C3C
:103BA000B9FA89F90E694FEA490906FA09F64CEAA9
:103BB0000606B8F1020FC6601CD193FAA3F6B6FA56
:103BC00086F6072ED1F814C016DCD0F8208093FAC0
:103BD000A3F6B6FA86F693FAA3F3B3FA83F3B60024
:103BE00007FA06F69B0028EA06060CFA03FC46EAEA
:103BF0000C06066201347EE7D0F824801B0A93FA93
:103C0000A3F6B6FA86F693FAA3F3B3FA83F3B600F3
:103C100007FA06F69B0028EA06060CFA03F333437C
:103C20004362E7E7114B4FF4FA521B68B3FBF2F221
:103C300041F28833534313F1FF3314D3426B12F034
:103C4000450FF8D0436B5B0703D504238363184605
:103C50007047436B13F0010301D00123F6E740F2F4
:103C6000FF528263F3E74FF00043F0E710000020BB
:103C70000E4B4FF4FA521B68B3FBF2F241F2883359
:103C8000534313F1FF330ED3426B12F0450FF8D0BC
:103C9000436B13F0040315BF042340F2FF52836308
:103CA0008263184670474FF00040704710000020B4
:103CB00084B010B503AC84E80E000499039B4268FD
:103CC0000B4305990B4306990B4307990B4308993E
:103CD000BDE8104022F4FD420B4322F07F02134363
:103CE000436004B000207047D0F8800070470B6834
:103CF000C0F8803000207047032303600020704725
:103D0000006800F0030070470B6810B583608C6892
:103D10004B68C2682343CC680969234322F47F625D
:103D20000B4322F00F021343C360002010BD82B08A
:103D300014300144002301930191019B186802B0E3
:103D400070470000454B10B51B684FF4FA54B3FBA5
:103D5000F4F35A43002A4AD0436B13F0450F02F1A3
:103D6000FF32F7D0436B5C0703D504238363184607
:103D700010BD436B13F0010301D00123F6E7026984
:103D8000D2B2914236D140F2FF5219468263FFF718
:103D9000CEFF334B0340002BE9D000282CDB420040
:103DA0002DD484002DD4C1002DD402012ED4440181
:103DB0002FD4C10130D4020231D4440232D4810262
:103DC00033D4C20234D4440335D4810336D4C2037D
:103DD00037D4040438D4410439D482043AD410F0DE
:103DE000080F14BF4FF400034FF48033BFE74FF0C8
:103DF0000043BCE70123BAE74FF00073B7E7402365
:103E0000B5E78023B3E74FF48073B0E74FF4007356
:103E1000ADE74FF48063AAE74FF40063A7E74FF4E0
:103E20008053A4E74FF40053A1E74FF480439EE78B
:103E30004FF400439BE74FF4003398E74FF480239F
:103E400095E74FF4002392E74FF480138FE74FF488
:103E500000138CE74FF4800389E700BF10000020B7
:103E600008E0FFFD0B6810B543624B688362CC68C5
:103E70008B68C26A23430C69496923430B4322F0D0
:103E8000F7021343C362002010BD30B587B0402352
:103E900003930023054601911024049301A94FF4D4
:103EA000806305930294FFF72FFF41F28832214689
:103EB0002846FFF747FF07B030BD30B587B0402335
:103EC00003930023054601911124049301A94FF4A3
:103ED000806305930294FFF717FF41F28832214671
:103EE0002846FFF72FFF07B030BD30B587B040231D
:103EF00003930023054601911224049301A94FF472
:103F0000806305930294FFF7FFFE41F28832214659
:103F10002846FFF717FF07B030BD30B587B0402304
:103F200003930023054601911824049301A94FF43B
:103F3000806305930294FFF7E7FE41F28832214641
:103F40002846FFF7FFFE07B030BD30B587B04023ED
:103F500003930023054601911924049301A94FF40A
:103F6000806305930294FFF7CFFE41F28832214629
:103F70002846FFF7E7FE07B030BD000030B587B038
:103F80000023054601930C244022049301A94FF419
:103F90008063039205930294FFF7B6FE034A21461D
:103FA0002846FFF7CFFE07B030BD00BF00E1F505A2
:103FB00030B587B0402303930023054607240493BC
:103FC00001A94FF48063019205930294FFF79CFED0
:103FD00041F2883221462846FFF7B4FE07B030BDD3
:103FE00010B586B00023019302930393049301A9B3
:103FF0004FF4806305930446FFF786FE0B4B4FF4A6
:10400000FA521B68B3FBF2F241F28833534313F1C7
:10401000FF3308D3626B1206F9D540F2FF53A36356
:10402000002006B010BD4FF00040FAE7100000205D
:1040300010B586B04FF4D573019308230293402343
:1040400003930023049301A94FF48063059304466E
:10405000FFF75AFE114B4FF4FA521B68B3FBF2F212
:1040600041F28833534313F1FF3314D3626B12F0E0
:10407000450FF8D0626B12F0040204D04023A36312
:10408000042006B010BD606B10F04000F9D0402352
:10409000A3631046F5E74FF00040F2E71000002060
:1040A00030B587B0402303930023054601913724A0
:1040B000049301A94FF4806305930294FFF724FE53
:1040C00041F2883221462846FFF73CFE07B030BD5A
:1040D00010B586B02923029341F000414023039399
:1040E00041F48011002304460191049301A94FF487
:1040F00080630593FFF708FE2046FFF7B9FD06B081
:1041000010BD30B587B0002305460193332440220B
:10411000049301A94FF48063039205930294FFF77F
:10412000F3FD41F2883221462846FFF70BFE07B027
:1041300030BD10B586B000230222044601930292DE
:104140000493C0224FF4806301A903920593FFF703
:10415000DBFD2046FFF766FD06B010BD10B586B04A
:1041600009230293C023039300230446019104937F
:1041700001A94FF480630593FFF7C6FD2046FFF7C2
:1041800051FD06B010BD000030B587B000230322FA
:1041900001930292049340224FF480630D4601A9DB
:1041A000039205930446FFF7AFFD204B4FF4FA52FC
:1041B0001B68B3FBF2F241F28833534313F1FF3330
:1041C0002BD3626B12F0450FF8D0636B5A0703D5FF
:1041D0000420A06307B030BD616B11F0010101D074
:1041E0000120F6E72369DBB2032B19D140F2FF531C
:1041F000A3632046FFF79BFD10F4604303D1000C3E
:1042000028801846E6E743040CD410F4004F14BF8E
:104210004FF480504FF48030DCE74FF00040D9E796
:104220000120D7E74FF40050D4E700BF1000002072
:1042300030B587B0402303930023054601910D2438
:10424000049301A94FF4806305930294FFF75CFD8A
:1042500041F2883221462846FFF774FD07B030BD91
:1042600030B587B04023039300230546019106240F
:10427000049301A94FF4806305930294FFF744FD72
:1042800041F2883221462846FFF75CFD07B030BD79
:10429000FFF7E6BF2F4A0368904212D0B0F1804F7B
:1042A0000FD0A2F57C4290420BD002F58062904282
:1042B00007D002F58062904203D002F57842904226
:1042C00019D14A6823F070031343224A904229D03F
:1042D000B0F1804F26D0A2F57C42904222D002F568
:1042E000806290421ED002F5806290421AD002F5A0
:1042F0007842904216D0184A904213D002F580625C
:1043000090420FD002F5806290420BD0A2F5983215
:10431000904207D002F58062904203D002F580629D
:10432000904203D1CA6823F44073134303608B683F
:10433000C3620B888362074B984203D003F5806306
:10434000984201D10B7C0363436943F0010343614D
:10435000012070470000014000400140102930B5A5
:1043600066D003D801292FD0002030BDB1F5807F61
:1043700000F09480B1F5805FF6D1036A156823F4EC
:1043800080530362036A4468C16921F4E64141EA4B
:104390000521156923F4005343EA0533556823F4D6
:1043A000805343EA0533584DA84203D005F5806594
:1043B000A84204D1956924F4804444EA8514D26863
:1043C0004460C161026430E0036A156823F00103B0
:1043D0000362036A4168846924F073042C431569FD
:1043E00023F002032B43556823F001032B43464D72
:1043F000A84203D005F58065A84212D1556923F083
:10440000080343EA8503956823F0040343EA850320
:10441000956921F480712943D56921F4007141EA3D
:104420004501D2684160846142630362012030BD6E
:10443000036A156823F010030362036A4168846904
:1044400024F4E64444EA0524156923F0200343EAF2
:104450000513556823F0100343EA05132A4DA842BB
:1044600003D005F58065A84213D1556923F0800378
:1044700043EA8513956823F0400343EA8513956961
:1044800021F4806141EA8501D56921F4006141EAA6
:10449000C501D268416084618263C6E7036A15681A
:1044A00023F480730362036A4168C46924F07304CF
:1044B0002C43156923F4007343EA0523556823F45C
:1044C000807343EA0523104DA84203D005F58065AB
:1044D000A84213D1556923F4006343EA8523956804
:1044E00023F4806343EA8523956921F4805141EAEE
:1044F0000511D56921F4005141EA4511D2684160A6
:10450000C461C26391E700BF000001408A680B7B71
:1045100013434A6823F4806313430A6823F4006357
:104520001343CA8923F4805313430A6923F40053C5
:1045300013434A6923F44043134343640120704703
:1045400030B50F4B5D7A05F0FF04B5B95D7A5C5567
:104550005D7A03EB85056860587A184402725A7ACE
:10456000D2B2501CC0B258723A2330324B702F2353
:104570000A708B70CC70204630BD012030BD00BF6A
:10458000380200200022FFF7DBBF08B500F0A2FFD1
:10459000002008BD08B501F03DFA10F1FF3018BF4A
:1045A000012008BDEFF305830BB100F0DDBF00F083
:1045B000D5BF30B5B0F90840028A0B4690E822001A
:1045C00085B0842C14BF0334002403A80190009408
:1045D000284600F0AFFE01280CBF0398002005B06C
:1045E00030BD08B5002808BF012001F0CFF8002039
:1045F00008BD002203C800F0EDBB00001FB5002479
:1046000001910394A24208BF0122EFF30583ABB1ED
:10461000234603AA01A900F0B5FC012802D0FF201F
:1046200004B010BD039B3BB1074B4FF080521A60A2
:10463000BFF34F8FBFF36F8F0020F1E701A900F0A8
:10464000EBFB0128EBD1F7E704ED00E0F0B585B016
:1046500000260446174608460391029601AD11B99B
:104660008023019317E00096EFF30583D3B16A46E8
:1046700002A900F0ADFD012804BF10230193009BA7
:1046800018BF01963BB10D4B4FF080521A60BFF33B
:104690004F8FBFF36F8F95E8070084E8070020462F
:1046A00005B0F0BD02A900F0CFFC012801D1102314
:1046B000D7E7002F0CBF00234023D2E704ED00E032
:1046C00008B501F0A7F9012803D0BDE8084000F0C3
:1046D00009B908BD00F1080343604FF0FF32C36021
:1046E0000361002382600360704700230361704709
:1046F00043684B609A688A609A6851609960036861
:1047000008610133036070470A68531C30B50AD151
:1047100003695A684A6091608B6059600368086158
:104720000133036030BD00F108035C682568AA42CC
:10473000EFD32346F9E74168826803698A6082689B
:1047400051605968884208BF5A60002202611868A7
:1047500001381860704700000A4B1B68013308D00D
:104760004FF0500383F31188BFF36F8FBFF34F8F68
:10477000FEE74FF0500383F31188BFF36F8FBFF351
:104780004F8FFEE70800002006480068006880F3AD
:10479000088862B661B6BFF34F8FBFF36F8F00DF3B
:1047A00000BF000008ED00E0DFF80C00016841F4F4
:1047B000700101607047000088ED00E04FF08073E9
:1047C00040F8043C074B40F80C3C21F001016FF02D
:1047D000020340F8081C40F8202C40F8243C4438E0
:1047E000704700BF594700080000000000000000AB
:1047F000074B19680868B0E8F04F80F30988BFF3E9
:104800006F8F4FF0000080F311887047AFF3008086
:10481000643E00204FF0500383F31188BFF36F8F85
:10482000BFF34F8F0A4A13680133012B13600DD178
:10483000084B1B6813F0FF0F08D04FF0500383F3B1
:104840001188BFF36F8FBFF34F8FFEE7704700BF34
:104850000800002004ED00E0084A136843B94FF057
:10486000500383F31188BFF36F8FBFF34F8FFEE7C1
:10487000013B13600BB983F31188704708000020D7
:10488000EFF30980BFF36F8F154B1A681EF0100FFE
:1048900008BF20ED108A20E9F04F10604DF8043D6C
:1048A0004FF0500080F31188BFF34F8FBFF36F8F2D
:1048B00000F0CAFF4FF0000080F3118808BC1968AF
:1048C0000868B0E8F04F1EF0100F08BFB0EC108A77
:1048D00080F30988BFF36F8F704700BFAFF300808C
:1048E000643E002008B54FF0500383F31188BFF3F6
:1048F0006F8FBFF34F8F00F03FFE18B1034B4FF0A7
:1049000080521A60002383F3118808BD04ED00E093
:10491000064B4FF47A721B68B3FBF2F3044A013B77
:104920001360044B07221A60704700BF100000207C
:1049300014E000E010E000E0314B324A13B5196892
:10494000914208D14FF0500383F31188BFF36F8F6A
:10495000BFF34F8FFEE71A682B4B9A4208D14FF0F6
:10496000500383F31188BFF36F8FBFF34F8FFEE7C0
:10497000264B1A78D2B20192FF221A701B78244A71
:10498000DBB28DF803309DF8033003F05003137051
:10499000204B07221A6000219DF80300000602F157
:1049A000FF3423D401B11A601A68120202F4E062E3
:1049B0001A60019B154ADBB21370174B1A6842F458
:1049C00070021A601A6842F070421A60FFF7A0FF86
:1049D000124B00221A60FFF7E7FE114A136843F0FA
:1049E00040431360FFF7D0FEFFF7B6FE9DF80320AB
:1049F0005200D2B28DF8032001212246CCE700BF3D
:104A000000ED00E071C20F4170C20F4100E400E010
:104A1000440200204802002020ED00E008000020B1
:104A200034EF00E0EFF305830F2B0ED9104A9B5CA7
:104A3000104A12789A4208D94FF0500383F3118834
:104A4000BFF36F8FBFF34F8FFEE70B4B0B4A1B6813
:104A5000126803F4E063934208D94FF0500383F3E4
:104A60001188BFF36F8FBFF34F8FFEE7704700BF12
:104A7000F0E300E0440200200CED00E048020020DA
:104A800010B50F4B1A68824218D35C681919884216
:104A900001BF4168184609195960446801198A42E2
:104AA00007D1084909688A421FBF5168126809196D
:104AB00041609842026018BF186010BD1346E1E7DC
:104AC0005C3E00204C0200202DE9F041044600F03D
:104AD0003DFD3E493E4D0B680BBB3E4A56071FBF8E
:104AE000D01D20F0070002F570531B1A14BF0246B8
:104AF0004FF470531344083B23F00703364E0B600A
:104B000000207060326058601860981A1360334B50
:104B100050601860324B18604FF000432B602F68D4
:104B2000274216D1002C41D004F1080358071CBFBE
:104B300023F00703083363B1294A1668B34290464D
:104B400007D8254A15686868834204D809688D42E9
:104B500007D100242AE02C68002CF7D02A462546ED
:104B6000F1E7296814681160C21A102A0FD9E818F1
:104B7000410708D04FF0500383F31188BFF36F8FC4
:104B8000BFF34F8FFEE742606B60FFF779FF134979
:104B90006B680868F61A1F4386424FF00003C8F896
:104BA000006038BF0E6008346F602B6000F076FD47
:104BB000630708D04FF0500383F31188BFF36F8F62
:104BC000BFF34F8FFEE72046BDE8F0814C02002086
:104BD000503E0020500200205C3E0020583E002045
:104BE000543E002010B5044670B3184A50F8043CF7
:104BF0001268134208D14FF0500383F31188BFF3BA
:104C00006F8FBFF34F8FFEE750F8081C41B14FF094
:104C1000500383F31188BFF36F8FBFF34F8FFEE70D
:104C200023EA020340F8043C00F090FC084A54F8E0
:104C3000043C1168A4F108000B441360FFF720FF47
:104C4000BDE8104000F02ABD10BD00BF503E00205E
:104C5000543E002070B51546026C866B044642B97E
:104C600005689DB9406800F02BFF65600136A663BA
:104C700070BD6DB9806803F025FDA368226C1344F4
:104C80006268A360934201D32368A3600020EDE72C
:104C9000C06803F017FD236CE26821685B421A4488
:104CA0008A42E2603EBF62689B18E360022DEDD14C
:104CB0000EB1013EEAE73046D8E7034610B41A6C5D
:104CC000084662B1D9685C681144A142D96024BF2A
:104CD0001968D960D9685DF8044B03F0F3BC5DF83E
:104CE000044B704770B50446FFF794FD94F84550A7
:104CF00004F124066DB2002D14DCFF2384F8453046
:104D0000FFF7AAFDFFF786FD94F8445004F1100662
:104D10006DB2002D12DCFF2384F84430BDE87040F2
:104D2000FFF79ABD636A002BE7D0304600F0E0FD44
:104D300008B100F069FE013D6DB2DCE72369002B8C
:104D4000E9D0304600F0D4FD08B100F05DFE013D31
:104D50006DB2DEE738B50D46044640B94FF050035A
:104D600083F31188BFF36F8FBFF34F8FFEE7FFF719
:104D700051FD206CE36B2268A2604343D1181B1ADB
:104D800013446160E3600021FF23A16384F8443091
:104D900084F8453095B9236963B104F1100000F03F
:104DA000A7FD38B10A4B4FF080521A60BFF34F8F06
:104DB000BFF36F8FFFF750FD012038BD04F11000E5
:104DC000FFF788FC04F12400FFF784FCF2E700BF42
:104DD00004ED00E070B50D46064640B94FF05003B3
:104DE00083F31188BFF36F8FBFF34F8FFEE7484304
:104DF0004830FFF769FE044638B145B92060E663E4
:104E0000256401212046FFF7A5FF204670BD00F173
:104E100048030360F3E700002DE9FF47894601924C
:104E20001F46044640B94FF0500383F31188BFF387
:104E30006F8FBFF34F8FFEE7002940F08880036C2F
:104E4000002B00F084804FF0500383F31188BFF3F0
:104E50006F8FBFF34F8FFEE7019E002E00F0828020
:104E60004FF0500383F31188BFF36F8FBFF34F8F61
:104E7000FEE7019D1DB9FFF7EFFC002058E016B9D1
:104E800002A800F077FDFFF7E7FC00F05FFBFFF7FB
:104E9000C1FC94F84430FF2B08BF84F8448094F898
:104EA0004530FF2B08BF84F84580FFF7D5FC01A9EA
:104EB00002A800F06FFD002843D1FFF7ABFCA66B02
:104EC000E56BFFF7C9FCAE4235D1019904F1100042
:104ED00000F0F4FC2046FFF705FF00F0DFFB38B9D7
:104EE0004FF08053CAF80030BFF34F8FBFF36F8F7E
:104EF0000126FFF78FFCA26BE36B9A4201D3022FCE
:104F0000B7D13A4649462046FFF7A4FE636A1BB173
:104F100004F1240000F0ECFC38B1194B4FF0805242
:104F20001A60BFF34F8FBFF36F8FFFF795FC01201F
:104F300004B0BDE8F0872046FFF7D4FE00F0AEFBDA
:104F4000D6E72046FFF7CEFE00F0A8FB95E7022F3C
:104F500002D1E36B012B0AD100F05CFD00283FF485
:104F60007BAF00264FF00008DFF814A0C1E74FF038
:104F7000500383F31188BFF36F8FBFF34F8FFEE7AA
:104F800004ED00E02DE9F843884691461F460446AB
:104F900040B94FF0500383F31188BFF36F8FBFF315
:104FA0004F8FFEE709BB036CFBB14FF0500383F357
:104FB0001188BFF36F8FBFF34F8FFEE704F124001A
:104FC00000F096FC002834D0B9F1000F31D0012058
:104FD000C9F8000086F31188BDE8F88301356DB289
:104FE00084F8455025E00020F4E7022F02D1E36B5E
:104FF000012B20D1FFF716FDEFF311864FF0500380
:1050000083F31188BFF36F8FBFF34F8FA26BE36BF6
:105010009A4201D3022FE6D194F845503A466DB238
:1050200041462046FFF716FE6B1CD7D1636A002B62
:10503000C4D10120CEE74FF0500383F31188BFF3B2
:105040006F8FBFF34F8FFEE72DE9FF478846019230
:105050009946044640B94FF0500383F31188BFF3DB
:105060006F8FBFF34F8FFEE7002940F0A580036CE0
:10507000002B00F0A1804FF0500383F31188BFF3A1
:105080006F8FBFF34F8FFEE7019E002E00F09A80D6
:105090004FF0500383F31188BFF36F8FBFF34F8F2F
:1050A000FEE7636AE660002B6DD004F124005FE048
:1050B000019D1DB9FFF7D0FB284667E016B902A88D
:1050C00000F058FCFFF7C8FB00F040FAFFF7A2FB26
:1050D00094F84430FF2B08BF84F8447094F84530AE
:1050E000FF2B08BF84F84570FFF7B6FB01A902A8A3
:1050F00000F050FC002852D1FFF78CFBA56BFFF7A6
:10510000ABFB002D45D1236833B9FFF783FB606803
:1051100000F090FCFFF7A0FB019904F1240000F0DF
:10512000CDFB2046FFF7DEFD00F0B8FA38B94FF0AE
:105130008053CAF80030BFF34F8FBFF36F8F012643
:10514000FFF768FBA56B002DB2D041462046E6680C
:10515000FFF7B3FDB9F1000FA3D12368013DA563AB
:1051600013B900F0FDFC6060236963B104F1100025
:1051700000F0BEFB38B1154B4FF080521A60BFF300
:105180004F8FBFF36F8FFFF767FB012004B0BDE8BF
:10519000F0872046FFF7A6FD00F080FACFE7204613
:1051A000FFF7A0FD00F07AFAFFF734FBA56BFFF7DD
:1051B00053FB002DC3D17FE700F02CFC00283FF407
:1051C00063AF00260027DFF804A0B9E704ED00E094
:1051D0002DE9F84389469046054640B94FF0500303
:1051E00083F31188BFF36F8FBFF34F8FFEE771BB5F
:1051F000036C63B34FF0500383F31188BFF36F8FD9
:10520000BFF34F8FFEE795F84460494676B22846D3
:10521000FFF753FD013C731CAC6313D12B690BB931
:1052200001200BE005F1100000F062FB0028F7D030
:10523000B8F1000FF4D00120C8F8000087F31188FE
:10524000BDE8F883013676B285F84460E8E7FFF7F9
:10525000E9FBEFF311874FF0500383F31188BFF39D
:105260006F8FBFF34F8FAC6B002CCCD12046E5E79E
:10527000064A13681968064B19B94FF0FF321A60D5
:1052800070471268D268D2685268F8E7683E00201A
:10529000403F0020F8B51B4B1B4E1D68044630688C
:1052A00004300F46FFF747FA334640B93168174ECE
:1052B000C96A32680120884022EA00023260621C1A
:1052C00007D137B1196812480431BDE8F840FFF73B
:1052D0000FBA2C441A68A542546007D90D4A1068C9
:1052E0001968BDE8F8400431FFF70EBA0A4A1068A1
:1052F00019680431FFF708FA084B1A68944238BF5E
:105300001C60F8BD883F0020643E0020103F002054
:10531000603F00206C3E0020683E0020403F00209F
:105320004FF0500383F31188BFF36F8FBFF34F8F9C
:10533000FEE700002DE9F84F4FEA820A804650460A
:105340000F4699460B9EFFF7BFFB0546002800F06D
:1053500096805420FFF7B8FB0446002800F08C80AC
:10536000AAF1040A056355447B1E25F0070A00F1E3
:1053700034020F37597802F8011B13F8011F09B1E5
:10538000BB42F7D10A9D062D28BF06254FF0000B22
:10539000271DE5626564384684F843B0C4F848B018
:1053A000FFF7A3F9C5F1070504F11800FFF79DF910
:1053B000C4F84CB02461A561646284F850B04A46D8
:1053C00041465046FFF7FAF9206006B13460FFF716
:1053D00021FA324B324E1A68DFF8F08001321A603F
:1053E0003568002D4ED134601B68012B1DD108EBB0
:1053F00005001435FFF76EF98C2DF8D1DFF8D09049
:10540000284D4846FFF766F92846FFF763F9264816
:10541000FFF760F92548FFF75DF92548FFF75AF9CE
:10542000244BC3F80090244B1D60244A2449136880
:10543000086801331360E26A012505FA02F30343A9
:1054400014200B6000FB02803946FFF751F9FFF78B
:1054500003FA1C4B1B6863B13368DA6AE36A9A4249
:1054600007D2194B4FF080521A60BFF34F8FBFF332
:105470006F8F2846BDE8F88F2846FFF7B3FB4FF043
:10548000FF35F6E70F4B1B68002BCED13368DA6A85
:10549000E36A9A4298BF3460C7E700BFFC3E002031
:1054A000643E0020283F0020483F0020743F002039
:1054B000603F0020683E00206C3E00200C3F002032
:1054C000103F00205C3F002004ED00E0703E002013
:1054D000143F002013B5174B01930024009423467A
:1054E000802215491548FFF725FF012814D14FF0F8
:1054F000500383F31188BFF36F8FBFF34F8F104BAF
:105500004FF0FF321A600F4B18600F4B1C6002B057
:10551000BDE81040FFF710BA013008D14FF050033A
:1055200083F31188BFF36F8FBFF34F8FFEE702B095
:1055300010BD00BF3C3F0020209C0008D55700084C
:10554000403F00205C3F0020883F0020024A136853
:1055500001331360704700BF083F0020014B1868FB
:10556000704700BF883F002008B5FFF75BFA014B8A
:10557000186808BD883F00202DE9F84F3C4B1B6898
:10558000002B53D13B4B1C6801341C60BCB93A4B17
:105590001A68126842B14FF0500383F31188BFF3C9
:1055A0006F8FBFF34F8FFEE7344A19681068186099
:1055B0001160334A136801331360FFF759FE314D10
:1055C000314F2B689C424FF0000B3ED3DFF8A88090
:1055D000DFF8C490D8F80020126872BB4FF0FF3299
:1055E0002A6032E006F1040A5046FFF7A4F8B16AD7
:1055F00019B106F11800FFF79EF8F06AD9F80030EB
:10560000012202FA00F11943204BC9F800104FF0B3
:10561000140E51460EFB0030FFF76AF83868F16A45
:10562000C26A914228BF4FF0010BD3E7184A1368B2
:10563000013313604FF0000B11E0D8F80020D2685E
:10564000D66871688C42CDD229603A680F4BD16A16
:1056500014224A439A58022A28BF4FF0010B0D4AE0
:105660001268002A18BF4FF0010B5846BDE8F88FAA
:10567000083F0020883F0020683E00206C3E00204C
:10568000443F0020403F0020643E0020703E002048
:10569000043F00208C3F0020103F00202DE9F843FC
:1056A000314C236843B94FF0500383F31188BFF3A3
:1056B0006F8FBFF34F8FFEE7FFF7ACF82368013B16
:1056C000236024682CB10024FFF7C6F82046BDE80B
:1056D000F883264B1B68002BF5D0DFF8A890244FE9
:1056E000DFF8A480D9F80030E3B90CB1FFF7C0FDB2
:1056F000204D2C6844B1204E0127FFF73DFF00B13B
:105700003760013CF9D12C601B4B1B68002BDAD0B1
:105710001A4B4FF080521A60BFF34F8FBFF36F8F59
:105720000124D1E7D9F80C30DC68261D04F11800FB
:10573000FFF701F83046FEF7FEFFE26A39680125FF
:1057400005FA02F314200B4300FB028031463B6054
:10575000FEF7CEFF0A4BE26A1B68DB6A9A4224BF5F
:10576000054B1D60BEE700BF083F0020FC3E002047
:10577000103F0020043F00208C3F002004ED00E09B
:10578000643E0020483F0020703E002008B540B92C
:105790000E4B4FF080521A60BFF34F8FBFF36F8FE5
:1057A00008BD0B4B196841B14FF0500383F31188CA
:1057B000BFF36F8FBFF34F8FFEE7FFF7C7FEFFF713
:1057C00069FDFFF76BFF0028E2D008BD04ED00E0A3
:1057D000083F002008B5174E174C236863B9174BD4
:1057E0001B68012BF8D9164B4FF080521A60BFF39B
:1057F0004F8FBFF36F8FEFE7FFF7A8FE3568FFF716
:105800004DFF002DE9D0FFF705F8F368DD68281D8E
:10581000FEF791FF0B4A1368013B13602368013BBD
:105820002360FFF719F8286BFFF7DCF92846FFF72C
:10583000D9F9D2E7743F0020003F0020703E0020DD
:1058400004ED00E0FC3E0020174B1A68174B10B522
:1058500012B101221A6010BD1A60154B1B68B3FA11
:1058600083F3DBB2C3F11F03142212495A43881891
:105870008C5844B94FF0500383F31188BFF36F8FF6
:10588000BFF34F8FFEE744680832646844600A44FF
:10589000944204BF62684260142202FB03135B68F7
:1058A000DA68054BD6E700BF083F00208C3F002098
:1058B000103F0020703E0020643E002010B50C46D2
:1058C00040B94FF0500383F31188BFF36F8FBFF3DC
:1058D0004F8FFEE7054B19681831FEF715FF20467C
:1058E0000121BDE81040FFF7D5BC00BF643E002099
:1058F00038B5C368DC6844B94FF0500383F31188AE
:10590000BFF36F8FBFF34F8FFEE704F118052846F2
:10591000FEF711FF114B1B68E3B9251D2846FEF762
:105920000AFF0F49E26A08680123934003430B60B2
:105930000C4B1420294600FB0230FEF7D9FE0A4B1F
:10594000E26A1B68DB6A9A4283BF084B0120186039
:10595000002038BD29460648EFE700BF083F002079
:10596000103F0020703E0020643E00208C3F00204D
:10597000483F002008B508B9FFF7D2FC034B1B686D
:105980000360034B1B68436008BD00BF443F002019
:10599000883F002038B50D46044640B94FF050030B
:1059A00083F31188BFF36F8FBFF34F8FFEE741B9C9
:1059B0004FF0500383F31188BFF36F8FBFF34F8F06
:1059C000FEE7FEF727FF0E4B19682B685A1C10D014
:1059D0000C4A206812689042626801D091420DD250
:1059E000881A83420AD95B1A13442B602046FFF7BA
:1059F000C1FF0024FEF730FF204638BD0124F9E73F
:105A0000883F0020443F0020014B01221A6070476C
:105A10008C3F0020054B1B6833B1054B1B68002BE6
:105A20000CBF022000207047012070475C3F00201F
:105A3000083F00202DE9F0410446002838D01D4DD4
:105A4000C36A2A68D26A934232D282691A4E002A05
:105A5000A1BF2A68D26AC2F1070282611427426993
:105A600007FB03639A4220D100F104084046FEF789
:105A700062FE124A48B9E06A4743F3592BB91368EA
:105A80000121814023EA010313602B681168D86A61
:105A9000E062012383400B4313601423414603FB60
:105AA0000060BDE8F041FEF723BE2B68DB6AC362ED
:105AB000BDE8F081643E0020703E0020103F0020D1
:105AC000F8B5044608B90020F8BD224B1B6898427F
:105AD00008D04FF0500383F31188BFF36F8FBFF3EB
